{
  "_format": "hh-sol-artifact-1",
  "contractName": "StakingAET",
  "sourceName": "contracts/StakingAET.sol",
  "abi": [
    {
      "inputs": [],
      "stateMutability": "nonpayable",
      "type": "constructor"
    },
    {
      "inputs": [
        {
          "internalType": "address",
          "name": "spender",
          "type": "address"
        },
        {
          "internalType": "uint256",
          "name": "allowance",
          "type": "uint256"
        },
        {
          "internalType": "uint256",
          "name": "needed",
          "type": "uint256"
        }
      ],
      "name": "ERC20InsufficientAllowance",
      "type": "error"
    },
    {
      "inputs": [
        {
          "internalType": "address",
          "name": "sender",
          "type": "address"
        },
        {
          "internalType": "uint256",
          "name": "balance",
          "type": "uint256"
        },
        {
          "internalType": "uint256",
          "name": "needed",
          "type": "uint256"
        }
      ],
      "name": "ERC20InsufficientBalance",
      "type": "error"
    },
    {
      "inputs": [
        {
          "internalType": "address",
          "name": "approver",
          "type": "address"
        }
      ],
      "name": "ERC20InvalidApprover",
      "type": "error"
    },
    {
      "inputs": [
        {
          "internalType": "address",
          "name": "receiver",
          "type": "address"
        }
      ],
      "name": "ERC20InvalidReceiver",
      "type": "error"
    },
    {
      "inputs": [
        {
          "internalType": "address",
          "name": "sender",
          "type": "address"
        }
      ],
      "name": "ERC20InvalidSender",
      "type": "error"
    },
    {
      "inputs": [
        {
          "internalType": "address",
          "name": "spender",
          "type": "address"
        }
      ],
      "name": "ERC20InvalidSpender",
      "type": "error"
    },
    {
      "anonymous": false,
      "inputs": [
        {
          "indexed": true,
          "internalType": "address",
          "name": "owner",
          "type": "address"
        },
        {
          "indexed": true,
          "internalType": "address",
          "name": "spender",
          "type": "address"
        },
        {
          "indexed": false,
          "internalType": "uint256",
          "name": "value",
          "type": "uint256"
        }
      ],
      "name": "Approval",
      "type": "event"
    },
    {
      "anonymous": false,
      "inputs": [
        {
          "indexed": true,
          "internalType": "uint256",
          "name": "_walletId",
          "type": "uint256"
        },
        {
          "indexed": false,
          "internalType": "address",
          "name": "_address",
          "type": "address"
        }
      ],
      "name": "CreateWallet",
      "type": "event"
    },
    {
      "anonymous": false,
      "inputs": [
        {
          "indexed": true,
          "internalType": "uint256",
          "name": "_walletId",
          "type": "uint256"
        },
        {
          "indexed": false,
          "internalType": "uint256",
          "name": "amount",
          "type": "uint256"
        }
      ],
      "name": "DepositWallet",
      "type": "event"
    },
    {
      "anonymous": false,
      "inputs": [
        {
          "indexed": true,
          "internalType": "uint256",
          "name": "_walletId",
          "type": "uint256"
        },
        {
          "indexed": false,
          "internalType": "uint256",
          "name": "totalAmount",
          "type": "uint256"
        }
      ],
      "name": "StakingEthEvent",
      "type": "event"
    },
    {
      "anonymous": false,
      "inputs": [
        {
          "indexed": true,
          "internalType": "address",
          "name": "from",
          "type": "address"
        },
        {
          "indexed": true,
          "internalType": "address",
          "name": "to",
          "type": "address"
        },
        {
          "indexed": false,
          "internalType": "uint256",
          "name": "value",
          "type": "uint256"
        }
      ],
      "name": "Transfer",
      "type": "event"
    },
    {
      "anonymous": false,
      "inputs": [
        {
          "indexed": true,
          "internalType": "uint256",
          "name": "_walletId",
          "type": "uint256"
        }
      ],
      "name": "UnStakingEthEvent",
      "type": "event"
    },
    {
      "anonymous": false,
      "inputs": [
        {
          "indexed": true,
          "internalType": "uint256",
          "name": "_walletId",
          "type": "uint256"
        },
        {
          "indexed": false,
          "internalType": "address",
          "name": "_to",
          "type": "address"
        },
        {
          "indexed": false,
          "internalType": "uint256",
          "name": "amount",
          "type": "uint256"
        }
      ],
      "name": "WithdrawWallet",
      "type": "event"
    },
    {
      "stateMutability": "payable",
      "type": "fallback"
    },
    {
      "inputs": [
        {
          "internalType": "uint256",
          "name": "_walletId",
          "type": "uint256"
        },
        {
          "internalType": "uint256",
          "name": "stakedAmount",
          "type": "uint256"
        }
      ],
      "name": "StakingEth",
      "outputs": [],
      "stateMutability": "nonpayable",
      "type": "function"
    },
    {
      "inputs": [
        {
          "internalType": "uint256",
          "name": "_walletId",
          "type": "uint256"
        }
      ],
      "name": "UnStake",
      "outputs": [],
      "stateMutability": "nonpayable",
      "type": "function"
    },
    {
      "inputs": [
        {
          "internalType": "address",
          "name": "owner",
          "type": "address"
        },
        {
          "internalType": "address",
          "name": "spender",
          "type": "address"
        }
      ],
      "name": "allowance",
      "outputs": [
        {
          "internalType": "uint256",
          "name": "",
          "type": "uint256"
        }
      ],
      "stateMutability": "view",
      "type": "function"
    },
    {
      "inputs": [
        {
          "internalType": "address",
          "name": "spender",
          "type": "address"
        },
        {
          "internalType": "uint256",
          "name": "value",
          "type": "uint256"
        }
      ],
      "name": "approve",
      "outputs": [
        {
          "internalType": "bool",
          "name": "",
          "type": "bool"
        }
      ],
      "stateMutability": "nonpayable",
      "type": "function"
    },
    {
      "inputs": [
        {
          "internalType": "address",
          "name": "account",
          "type": "address"
        }
      ],
      "name": "balanceOf",
      "outputs": [
        {
          "internalType": "uint256",
          "name": "",
          "type": "uint256"
        }
      ],
      "stateMutability": "view",
      "type": "function"
    },
    {
      "inputs": [
        {
          "internalType": "uint256",
          "name": "_walletId",
          "type": "uint256"
        }
      ],
      "name": "calculateCurrentReward",
      "outputs": [
        {
          "internalType": "uint256",
          "name": "",
          "type": "uint256"
        }
      ],
      "stateMutability": "view",
      "type": "function"
    },
    {
      "inputs": [],
      "name": "createWallet",
      "outputs": [
        {
          "internalType": "uint256",
          "name": "",
          "type": "uint256"
        },
        {
          "internalType": "address",
          "name": "",
          "type": "address"
        }
      ],
      "stateMutability": "nonpayable",
      "type": "function"
    },
    {
      "inputs": [
        {
          "internalType": "uint256",
          "name": "_walletId",
          "type": "uint256"
        }
      ],
      "name": "currentStake",
      "outputs": [
        {
          "internalType": "uint256",
          "name": "",
          "type": "uint256"
        }
      ],
      "stateMutability": "view",
      "type": "function"
    },
    {
      "inputs": [],
      "name": "decimals",
      "outputs": [
        {
          "internalType": "uint8",
          "name": "",
          "type": "uint8"
        }
      ],
      "stateMutability": "view",
      "type": "function"
    },
    {
      "inputs": [
        {
          "internalType": "uint256",
          "name": "_walletId",
          "type": "uint256"
        }
      ],
      "name": "getIsStaked",
      "outputs": [
        {
          "internalType": "bool",
          "name": "",
          "type": "bool"
        }
      ],
      "stateMutability": "view",
      "type": "function"
    },
    {
      "inputs": [
        {
          "internalType": "uint256",
          "name": "_walletId",
          "type": "uint256"
        }
      ],
      "name": "getWalletAdr",
      "outputs": [
        {
          "internalType": "address",
          "name": "",
          "type": "address"
        }
      ],
      "stateMutability": "view",
      "type": "function"
    },
    {
      "inputs": [
        {
          "internalType": "address",
          "name": "walletAdr",
          "type": "address"
        }
      ],
      "name": "getWalletId",
      "outputs": [
        {
          "internalType": "uint256",
          "name": "",
          "type": "uint256"
        }
      ],
      "stateMutability": "view",
      "type": "function"
    },
    {
      "inputs": [],
      "name": "getWallets",
      "outputs": [
        {
          "internalType": "uint256[]",
          "name": "",
          "type": "uint256[]"
        }
      ],
      "stateMutability": "view",
      "type": "function"
    },
    {
      "inputs": [
        {
          "internalType": "uint256",
          "name": "",
          "type": "uint256"
        }
      ],
      "name": "isStaked",
      "outputs": [
        {
          "internalType": "bool",
          "name": "",
          "type": "bool"
        }
      ],
      "stateMutability": "view",
      "type": "function"
    },
    {
      "inputs": [],
      "name": "name",
      "outputs": [
        {
          "internalType": "string",
          "name": "",
          "type": "string"
        }
      ],
      "stateMutability": "view",
      "type": "function"
    },
    {
      "inputs": [],
      "name": "rewardAmountPerBlock",
      "outputs": [
        {
          "internalType": "uint256",
          "name": "",
          "type": "uint256"
        }
      ],
      "stateMutability": "view",
      "type": "function"
    },
    {
      "inputs": [
        {
          "internalType": "uint256",
          "name": "",
          "type": "uint256"
        }
      ],
      "name": "stakingWallets",
      "outputs": [
        {
          "internalType": "contract Wallet",
          "name": "wallet",
          "type": "address"
        },
        {
          "internalType": "uint256",
          "name": "stakedValue",
          "type": "uint256"
        },
        {
          "internalType": "uint256",
          "name": "sinceBlock",
          "type": "uint256"
        },
        {
          "internalType": "uint256",
          "name": "untilBlock",
          "type": "uint256"
        },
        {
          "internalType": "uint256",
          "name": "totalReward",
          "type": "uint256"
        }
      ],
      "stateMutability": "view",
      "type": "function"
    },
    {
      "inputs": [],
      "name": "symbol",
      "outputs": [
        {
          "internalType": "string",
          "name": "",
          "type": "string"
        }
      ],
      "stateMutability": "view",
      "type": "function"
    },
    {
      "inputs": [],
      "name": "totalSupply",
      "outputs": [
        {
          "internalType": "uint256",
          "name": "",
          "type": "uint256"
        }
      ],
      "stateMutability": "view",
      "type": "function"
    },
    {
      "inputs": [
        {
          "internalType": "address",
          "name": "to",
          "type": "address"
        },
        {
          "internalType": "uint256",
          "name": "value",
          "type": "uint256"
        }
      ],
      "name": "transfer",
      "outputs": [
        {
          "internalType": "bool",
          "name": "",
          "type": "bool"
        }
      ],
      "stateMutability": "nonpayable",
      "type": "function"
    },
    {
      "inputs": [
        {
          "internalType": "address",
          "name": "from",
          "type": "address"
        },
        {
          "internalType": "address",
          "name": "to",
          "type": "address"
        },
        {
          "internalType": "uint256",
          "name": "value",
          "type": "uint256"
        }
      ],
      "name": "transferFrom",
      "outputs": [
        {
          "internalType": "bool",
          "name": "",
          "type": "bool"
        }
      ],
      "stateMutability": "nonpayable",
      "type": "function"
    },
    {
      "inputs": [
        {
          "internalType": "uint256",
          "name": "_walletId",
          "type": "uint256"
        }
      ],
      "name": "walletBalance",
      "outputs": [
        {
          "internalType": "uint256",
          "name": "",
          "type": "uint256"
        }
      ],
      "stateMutability": "view",
      "type": "function"
    },
    {
      "inputs": [
        {
          "internalType": "uint256",
          "name": "_walletId",
          "type": "uint256"
        }
      ],
      "name": "walletDeposit",
      "outputs": [],
      "stateMutability": "payable",
      "type": "function"
    },
    {
      "inputs": [
        {
          "internalType": "address",
          "name": "",
          "type": "address"
        }
      ],
      "name": "walletIDMapping",
      "outputs": [
        {
          "internalType": "uint256",
          "name": "",
          "type": "uint256"
        }
      ],
      "stateMutability": "view",
      "type": "function"
    },
    {
      "inputs": [
        {
          "internalType": "uint256",
          "name": "_walletId",
          "type": "uint256"
        },
        {
          "internalType": "address payable",
          "name": "_to",
          "type": "address"
        },
        {
          "internalType": "uint256",
          "name": "amount",
          "type": "uint256"
        }
      ],
      "name": "walletWithdraw",
      "outputs": [],
      "stateMutability": "nonpayable",
      "type": "function"
    },
    {
      "inputs": [
        {
          "internalType": "address",
          "name": "",
          "type": "address"
        },
        {
          "internalType": "uint256",
          "name": "",
          "type": "uint256"
        }
      ],
      "name": "wallets_mapping",
      "outputs": [
        {
          "internalType": "uint256",
          "name": "",
          "type": "uint256"
        }
      ],
      "stateMutability": "view",
      "type": "function"
    },
    {
      "stateMutability": "payable",
      "type": "receive"
    }
  ],
  "bytecode": "0x60806040523480156200001157600080fd5b506040518060400160405280600a81526020016920a2a7a7102a37b5b2b760b11b8152506040518060400160405280600381526020016210515560ea1b815250816003908162000062919062000121565b50600462000071828262000121565b505050620001ed565b634e487b7160e01b600052604160045260246000fd5b600181811c90821680620000a557607f821691505b602082108103620000c657634e487b7160e01b600052602260045260246000fd5b50919050565b601f8211156200011c576000816000526020600020601f850160051c81016020861015620000f75750805b601f850160051c820191505b81811015620001185782815560010162000103565b5050505b505050565b81516001600160401b038111156200013d576200013d6200007a565b62000155816200014e845462000090565b84620000cc565b602080601f8311600181146200018d5760008415620001745750858301515b600019600386901b1c1916600185901b17855562000118565b600085815260208120601f198616915b82811015620001be578886015182559484019460019091019084016200019d565b5085821015620001dd5787850151600019600388901b60f8161c191681555b5050505050600190811b01905550565b611e4780620001fd6000396000f3fe60806040526004361061018d5760003560e01c8063603af6cb116100d5578063ab2b421411610084578063c832021711610061578063c8320217146104c0578063db7a460514610512578063dd62ed3e14610534578063e304757e1461057a57005b8063ab2b421414610443578063b6394f3814610470578063baa51f861461049057005b806395d89b41116100b257806395d89b41146103ee578063980aa14614610403578063a9059cbb1461042357005b8063603af6cb1461037857806367104d811461039857806370a08231146103b857005b806321a539111161013c578063313ce56711610119578063313ce567146102e65780633e4fdae9146103025780634bd54650146103225780635a8ff9691461034257005b806321a539111461026e57806323b872dd1461028e57806330927f7e146102ae57005b806311ebbf241161016a57806311ebbf241461020457806317667ca71461023657806318160ddd1461025957005b806306fdde031461019657806307953130146101c1578063095ea7b3146101d457005b3661019457005b005b3480156101a257600080fd5b506101ab6105aa565b6040516101b8919061188d565b60405180910390f35b6101946101cf3660046118dc565b61063c565b3480156101e057600080fd5b506101f46101ef36600461190d565b610885565b60405190151581526020016101b8565b34801561021057600080fd5b5061021961089f565b604080519283526001600160a01b039091166020830152016101b8565b34801561024257600080fd5b5061024b600a81565b6040519081526020016101b8565b34801561026557600080fd5b5060025461024b565b34801561027a57600080fd5b50610194610289366004611939565b610a91565b34801561029a57600080fd5b506101f46102a936600461195b565b610cac565b3480156102ba57600080fd5b506102ce6102c93660046118dc565b610cd0565b6040516001600160a01b0390911681526020016101b8565b3480156102f257600080fd5b50604051601281526020016101b8565b34801561030e57600080fd5b5061024b61031d3660046118dc565b610d44565b34801561032e57600080fd5b5061024b61033d3660046118dc565b610db6565b34801561034e57600080fd5b5061024b61035d36600461199c565b6001600160a01b031660009081526006602052604090205490565b34801561038457600080fd5b506101946103933660046118dc565b610e75565b3480156103a457600080fd5b5061024b6103b33660046118dc565b61110a565b3480156103c457600080fd5b5061024b6103d336600461199c565b6001600160a01b031660009081526020819052604090205490565b3480156103fa57600080fd5b506101ab6111a2565b34801561040f57600080fd5b5061019461041e3660046119b9565b6111b1565b34801561042f57600080fd5b506101f461043e36600461190d565b6113f1565b34801561044f57600080fd5b5061024b61045e36600461199c565b60066020526000908152604090205481565b34801561047c57600080fd5b5061024b61048b36600461190d565b6113ff565b34801561049c57600080fd5b506101f46104ab3660046118dc565b60056020526000908152604090205460ff1681565b3480156104cc57600080fd5b506104e06104db3660046118dc565b611430565b604080516001600160a01b0390961686526020860194909452928401919091526060830152608082015260a0016101b8565b34801561051e57600080fd5b5061052761147b565b6040516101b891906119e0565b34801561054057600080fd5b5061024b61054f366004611a24565b6001600160a01b03918216600090815260016020908152604080832093909416825291909152205490565b34801561058657600080fd5b506101f46105953660046118dc565b60009081526005602052604090205460ff1690565b6060600380546105b990611a5d565b80601f01602080910402602001604051908101604052809291908181526020018280546105e590611a5d565b80156106325780601f1061060757610100808354040283529160200191610632565b820191906000526020600020905b81548152906001019060200180831161061557829003601f168201915b5050505050905090565b803361068f5760405162461bcd60e51b815260206004820152601460248201527f4e6f7420616e2076616c6964206164647265737300000000000000000000000060448201526064015b60405180910390fd5b6000600882815481106106a4576106a4611a97565b60009182526020918290206040805160a081018252600590930290910180546001600160a01b03168084526001820154848601526002820154848401526003820154606085015260049182015460808501528251638da5cb5b60e01b8152925193955033949093638da5cb5b9380840193908290030181865afa15801561072f573d6000803e3d6000fd5b505050506040513d601f19601f820116820180604052508101906107539190611aad565b6001600160a01b0316146107a95760405162461bcd60e51b815260206004820152601760248201527f4e6f74206f776e6572206f66207468652077616c6c65740000000000000000006044820152606401610686565b6000600884815481106107be576107be611a97565b6000918252602082206005909102018054604080517fd0e30db000000000000000000000000000000000000000000000000000000000815290519294506001600160a01b039091169263d0e30db0923492600480820193929182900301818588803b15801561082c57600080fd5b505af1158015610840573d6000803e3d6000fd5b5050505050837f042e9e410c4143ec6d49062983285b5e9c76fc52580372bc64824861653c99fd3460405161087791815260200190565b60405180910390a250505050565b6000336108938185856114db565b60019150505b92915050565b60008060006040516108b090611880565b604051809103906000f0801580156108cc573d6000803e3d6000fd5b506040805160a0810182526001600160a01b0383811682526000602083018181529383018181526060840182815260808501838152600880546001808201835582875297517ff3f7a9fe364faab93b216da50a3214154f22a0a2b415b23a84c8169e8b636ee3600590920291820180547fffffffffffffffffffffffff000000000000000000000000000000000000000016919098161790965596517ff3f7a9fe364faab93b216da50a3214154f22a0a2b415b23a84c8169e8b636ee486015591517ff3f7a9fe364faab93b216da50a3214154f22a0a2b415b23a84c8169e8b636ee5850155517ff3f7a9fe364faab93b216da50a3214154f22a0a2b415b23a84c8169e8b636ee6840155517ff3f7a9fe364faab93b216da50a3214154f22a0a2b415b23a84c8169e8b636ee79092019190915591549293509091610a119190611ae0565b6040516001600160a01b038416815290915081907e147bfe9dda573ae762e2319074f1217b3603aab5d16abe9edc2d826d1a5da89060200160405180910390a26001600160a01b03821660009081526006602090815260408083208490553383526007825282208054600181018255908352912001819055939092509050565b600060088381548110610aa657610aa6611a97565b60009182526020808320600590920290910180546040805163722713f760e01b815290519295506001600160a01b039091169263722713f7926004808401938290030181865afa158015610afe573d6000803e3d6000fd5b505050506040513d601f19601f82011682018060405250810190610b229190611af3565b9050828111610b995760405162461bcd60e51b815260206004820152602e60248201527f57616c6c65742042616c616e6365206e6565647320746f20626520626967676560448201527f72207374616b6564416d6f756e740000000000000000000000000000000000006064820152608401610686565b815460405163f3fef3a360e01b8152306004820152602481018590526001600160a01b039091169063f3fef3a390604401600060405180830381600087803b158015610be457600080fd5b505af1158015610bf8573d6000803e3d6000fd5b505050506000610c0785610db6565b905080836004016000828254610c1d9190611b0c565b9091555050426002840155600060038401819055600184018054869290610c45908490611b0c565b909155505060008581526005602052604090819020805460ff19166001908117909155840154905186917f3815a1cd9965419a2e3302dfca661c2b600ef18b56ba42ffc48d00d99e8633eb91610c9d91815260200190565b60405180910390a25050505050565b600033610cba8582856114ed565b610cc5858585611584565b506001949350505050565b60008060088381548110610ce657610ce6611a97565b60009182526020918290206040805160a081018252600590930290910180546001600160a01b031680845260018201549484019490945260028101549183019190915260038101546060830152600401546080909101529392505050565b60008060088381548110610d5a57610d5a611a97565b60009182526020918290206040805160a081018252600590930290910180546001600160a01b03168352600181015493830184905260028101549183019190915260038101546060830152600401546080909101529392505050565b60008060088381548110610dcc57610dcc611a97565b600091825260208083206040805160a081018252600590940290910180546001600160a01b031684526001810154928401929092526002820154908301819052600382015460608401526004909101546080830152909250610e2e9042611ae0565b905060006064600a838560200151610e469190611b1f565b610e509190611b1f565b610e5a9190611b36565b9050808360800151610e6c9190611b0c565b95945050505050565b8033610ec35760405162461bcd60e51b815260206004820152601460248201527f4e6f7420616e2076616c696420616464726573730000000000000000000000006044820152606401610686565b600060088281548110610ed857610ed8611a97565b60009182526020918290206040805160a081018252600590930290910180546001600160a01b03168084526001820154848601526002820154848401526003820154606085015260049182015460808501528251638da5cb5b60e01b8152925193955033949093638da5cb5b9380840193908290030181865afa158015610f63573d6000803e3d6000fd5b505050506040513d601f19601f82011682018060405250810190610f879190611aad565b6001600160a01b031614610fdd5760405162461bcd60e51b815260206004820152601760248201527f4e6f74206f776e6572206f66207468652077616c6c65740000000000000000006044820152606401610686565b600060088481548110610ff257610ff2611a97565b9060005260206000209060050201905080600301546000146110565760405162461bcd60e51b815260206004820152601060248201527f416c726561647920756e7374616b6564000000000000000000000000000000006044820152606401610686565b600061106185610db6565b905061106d33826115fc565b815460018301546040516001600160a01b039092169181156108fc0291906000818181858888f193505050501580156110aa573d6000803e3d6000fd5b50600060048301819055600283018190554260038401556001830181905585815260056020526040808220805460ff191690555186917f0e982cb653cca1e2060237fbef314f3068ceaaf1ed009772748604276210b78391a25050505050565b6000806008838154811061112057611120611a97565b600091825260209182902060059091020180546040805163722713f760e01b815290519294506001600160a01b039091169263722713f7926004808401938290030181865afa158015611177573d6000803e3d6000fd5b505050506040513d601f19601f8201168201806040525081019061119b9190611af3565b9392505050565b6060600480546105b990611a5d565b82336111ff5760405162461bcd60e51b815260206004820152601460248201527f4e6f7420616e2076616c696420616464726573730000000000000000000000006044820152606401610686565b60006008828154811061121457611214611a97565b60009182526020918290206040805160a081018252600590930290910180546001600160a01b03168084526001820154848601526002820154848401526003820154606085015260049182015460808501528251638da5cb5b60e01b8152925193955033949093638da5cb5b9380840193908290030181865afa15801561129f573d6000803e3d6000fd5b505050506040513d601f19601f820116820180604052508101906112c39190611aad565b6001600160a01b0316146113195760405162461bcd60e51b815260206004820152601760248201527f4e6f74206f776e6572206f66207468652077616c6c65740000000000000000006044820152606401610686565b60006008868154811061132e5761132e611a97565b60009182526020909120600590910201805460405163f3fef3a360e01b81526001600160a01b0388811660048301526024820188905292935091169063f3fef3a390604401600060405180830381600087803b15801561138d57600080fd5b505af11580156113a1573d6000803e3d6000fd5b5050604080516001600160a01b0389168152602081018890528993507f8be9825d11a262a520b3eeeefc7cac9d3a6a2c09f89a44a79faedb2df376b5fa92500160405180910390a2505050505050565b600033610893818585611584565b6007602052816000526040600020818154811061141b57600080fd5b90600052602060002001600091509150505481565b6008818154811061144057600080fd5b6000918252602090912060059091020180546001820154600283015460038401546004909401546001600160a01b0390931694509092909185565b3360009081526007602090815260409182902080548351818402810184019094528084526060939283018282801561063257602002820191906000526020600020905b8154815260200190600101908083116114be575050505050905090565b6114e88383836001611636565b505050565b6001600160a01b03838116600090815260016020908152604080832093861683529290522054600019811461157e578181101561156f576040517ffb8f41b20000000000000000000000000000000000000000000000000000000081526001600160a01b03841660048201526024810182905260448101839052606401610686565b61157e84848484036000611636565b50505050565b6001600160a01b0383166115c7576040517f96c6fd1e00000000000000000000000000000000000000000000000000000000815260006004820152602401610686565b6001600160a01b0382166115f15760405163ec442f0560e01b815260006004820152602401610686565b6114e883838361173d565b6001600160a01b0382166116265760405163ec442f0560e01b815260006004820152602401610686565b6116326000838361173d565b5050565b6001600160a01b038416611679576040517fe602df0500000000000000000000000000000000000000000000000000000000815260006004820152602401610686565b6001600160a01b0383166116bc576040517f94280d6200000000000000000000000000000000000000000000000000000000815260006004820152602401610686565b6001600160a01b038085166000908152600160209081526040808320938716835292905220829055801561157e57826001600160a01b0316846001600160a01b03167f8c5be1e5ebec7d5bd14f71427d1e84f3dd0314c0f7b2291e5b200ac8c7c3b9258460405161172f91815260200190565b60405180910390a350505050565b6001600160a01b03831661176857806002600082825461175d9190611b0c565b909155506117f39050565b6001600160a01b038316600090815260208190526040902054818110156117d4576040517fe450d38c0000000000000000000000000000000000000000000000000000000081526001600160a01b03851660048201526024810182905260448101839052606401610686565b6001600160a01b03841660009081526020819052604090209082900390555b6001600160a01b03821661180f5760028054829003905561182e565b6001600160a01b03821660009081526020819052604090208054820190555b816001600160a01b0316836001600160a01b03167fddf252ad1be2c89b69c2b068fc378daa952ba7f163c4a11628f55a4df523b3ef8360405161187391815260200190565b60405180910390a3505050565b6102b980611b5983390190565b60006020808352835180602085015260005b818110156118bb5785810183015185820160400152820161189f565b506000604082860101526040601f19601f8301168501019250505092915050565b6000602082840312156118ee57600080fd5b5035919050565b6001600160a01b038116811461190a57600080fd5b50565b6000806040838503121561192057600080fd5b823561192b816118f5565b946020939093013593505050565b6000806040838503121561194c57600080fd5b50508035926020909101359150565b60008060006060848603121561197057600080fd5b833561197b816118f5565b9250602084013561198b816118f5565b929592945050506040919091013590565b6000602082840312156119ae57600080fd5b813561119b816118f5565b6000806000606084860312156119ce57600080fd5b83359250602084013561198b816118f5565b6020808252825182820181905260009190848201906040850190845b81811015611a18578351835292840192918401916001016119fc565b50909695505050505050565b60008060408385031215611a3757600080fd5b8235611a42816118f5565b91506020830135611a52816118f5565b809150509250929050565b600181811c90821680611a7157607f821691505b602082108103611a9157634e487b7160e01b600052602260045260246000fd5b50919050565b634e487b7160e01b600052603260045260246000fd5b600060208284031215611abf57600080fd5b815161119b816118f5565b634e487b7160e01b600052601160045260246000fd5b8181038181111561089957610899611aca565b600060208284031215611b0557600080fd5b5051919050565b8082018082111561089957610899611aca565b808202811582820484141761089957610899611aca565b600082611b5357634e487b7160e01b600052601260045260246000fd5b50049056fe608060405234801561001057600080fd5b50600080546001600160a01b03191632179055610287806100326000396000f3fe6080604052600436106100405760003560e01c8063722713f7146100495780638da5cb5b14610069578063d0e30db0146100a1578063f3fef3a3146100a957005b3661004757005b005b34801561005557600080fd5b506040514781526020015b60405180910390f35b34801561007557600080fd5b50600054610089906001600160a01b031681565b6040516001600160a01b039091168152602001610060565b6100476100c9565b3480156100b557600080fd5b506100476100c4366004610219565b6100f6565b60405134907f4d6ce1e535dbade1c23defba91e23b8f791ce5edc0cc320257a2b364e4e3842690600090a2565b6000546001600160a01b031632146101555760405162461bcd60e51b815260206004820152601760248201527f4f6e6c79206f776e65722063616e20776974686472617700000000000000000060448201526064015b60405180910390fd5b80478181116101a65760405162461bcd60e51b815260206004820152601260248201527f496e73756666696369656e742066756e64730000000000000000000000000000604482015260640161014c565b6040516001600160a01b0385169084156108fc029085906000818181858888f193505050501580156101dc573d6000803e3d6000fd5b506040516001600160a01b0385169084907f8353ffcac0876ad14e226d9783c04540bfebf13871e868157d2a391cad98e91890600090a350505050565b6000806040838503121561022c57600080fd5b82356001600160a01b038116811461024357600080fd5b94602093909301359350505056fea2646970667358221220ab72fd305f89e41b208591334b7fc5883ba0d0794f308d0419eb47231aa639db64736f6c63430008170033a26469706673582212206699f81ff3223f95ccd17c9468f0555b68a16e28c14426bbacd31071128c6e3f64736f6c63430008170033",
  "linkReferences": {},
  "deployedLinkReferences": {}
}